:100000000C943A000C9457000C9457000C94570031
:100010000C9457000C9457000C9457000C94570004
:100020000C9457000C9457000C9457000C945700F4
:100030000C9457000C9457000C9457000C945700E4
:100040000C94C41C0C9457000C942A220C944C223F
:100050000C9457000C9457000C9457000C945700C4
:100060000C9457000C9457006364696E6F7073753D
:1000700078585B0011241FBECFEFD8E0DEBFCDBFA4
:1000800012E0A0E0B1E0E4E7F7E502C005900D92D0
:10009000A63BB107D9F724E0A6EBB2E001C01D9260
:1000A000A035B207E1F70E94371D0C94B82B0C94D1
:1000B00000009091BB0281E0911180E008950E94C0
:1000C000352091E0811101C090E0892F08950F93B0
:1000D0001F93CB01BA01A90198010E94162191E05A
:1000E000811101C090E0892F1F910F9108950F9306
:1000F0001F93CB01BA01A90198010E94782191E0D8
:10010000811101C090E0892F1F910F91089584E023
:100110000895FC016381862F90E0A0E0B0E0BA2F43
:10012000A92F982F88272281822BBA2FA92F982FA9
:1001300088272181822BBA2FA92F982F88272081E9
:10014000BC01CD01622B0895DC01FB012D91819151
:1001500030E0B901681B7109CB014150510911F020
:100160000097A1F308950F931F93FC019A01AB012F
:10017000225031094109510983899489A589B68999
:100180000297A109B109281739074A075B0768F4E4
:10019000A185B2850E94E32407A110A521A532A55F
:1001A000600F711F821F931F03C060E070E0CB01DE
:1001B0001F910F910895FC01208131812115310596
:1001C000B1F0F901BF014191413270F04A33D1F7EA
:1001D000F90141916E177F0751F4403341F42E5FCE
:1001E0003F4FFC013183208380E090E008958FEF42
:1001F0009FEF08950F931F93CF93DF93EC018B0133
:10020000892BF1F0E881F9813097D1F08081882342
:10021000B9F02A813B81858196812817390781F4BD
:1002200081810E94590080FD0BC02881398180E0C6
:10023000F80131832083DF91CF911F910F910895B1
:1002400089E020E030E0F4CFFB01480F591F2191F5
:10025000DC012D93CD01A417B507C9F70895FB0163
:10026000438D50E0542F4427928D492B60E070E07D
:10027000833079F4858990E0982F88272489822B10
:10028000A0E0B0E0DC0199278827482B592B6A2B86
:100290007B2BCB01BA010895FB01228F338FDC0148
:1002A0008C91833029F4CA01AA27BB27848B958BB4
:1002B00008950F931F93CF93DF93FC01EB0120E090
:1002C00030E040E050E08EE2BA016F5F7F4FA28DD8
:1002D000B38DA40FB51F9C919032A1F0953009F415
:1002E00095EE6930710539F4DE01A20FB31F19963E
:1002F0008C932F5F3F4FDE01A20FB31F19969C9383
:100300002F5F3F4FAB016B307105F1F6DE01A20F9D
:10031000B31F19961C92A28DB38D1B968C91888762
:10032000028D138DC8014C960E94890068837983E1
:100330008A839B83C80146960E9489007F836E83CF
:100340009D838C83DF91CF911F910F9108958F92A0
:100350009F92AF92BF92EF92FF920F931F93CF9312
:10036000DF93FC0123812223C1F1EC017C01FFE238
:10037000EF0EF11C2BA53CA54DA55EA501E010E0FC
:10038000B70189810E947700811129C01B828BA54A
:100390009CA5ADA5BEA50F89188D298D3A8D8F8C92
:1003A00098A0A9A0BAA0AC01BD01481959096A09D1
:1003B0007B09401751076207730778F46A8162303E
:1003C00061F4A9019801280F391F4A1F5B1F01E042
:1003D00010E0B70189810E94770080E001C081E0D0
:1003E000DF91CF911F910F91FF90EF90BF90AF9051
:1003F0009F908F9008958F929F92AF92BF92FF929D
:100400000F931F93CF93DF93EC014A015B018BA500
:100410009CA5ADA5BEA5481759076A077B07E9F05B
:10042000CE010E94A701F82E811118C001E010E052
:10043000A5019401BE01615D7F4F89810E94670023
:10044000882331F0FF24F39488248A94982C540153
:100450008BA69CA6ADA6BEA601C0F12C8F2DDF9168
:10046000CF911F910F91FF90BF90AF909F908F9071
:100470000895CF93DF93EC011B828FEF9FEFDC0198
:100480008BA79CA7ADA7BEA7CE010E94FB0181113F
:100490002CC0FE01E25DFD4F808190E0982F8827FF
:1004A00031972081822B85359A4A09F58FA5893E9F
:1004B00029F08B3E01F589A98039E9F443E050E049
:1004C0006FE071E0CE018B599F4F0E94A400892BF1
:1004D00081F045E050E063E171E0CE018F579F4F1E
:1004E0000E94A400892B39F404C084E005C083E095
:1004F00003C080E001C082E0DF91CF9108952F9288
:100500003F924F925F926F927F928F929F92AF92A3
:10051000BF92CF92DF92EF92FF920F931F93CF93F0
:10052000DF93CDB7DEB76E970FB6F894DEBF0FBE80
:10053000CDBF7B01DB011D921C924E8F0E94DB0020
:100540006C014E8D97FD60C2FC01EE0FFF1FE85459
:10055000FD4F008111810115110509F457C2F70102
:10056000118300834E7FF42ED8018C91882369F08B
:1005700011968C910E94590080FD07C0FF2009F45C
:1005800047C282FF45C28AE04BC2F8011082C18295
:100590008C2D0E945F0080FD3DC2FF2011F082FD86
:1005A000F2CF40E050E0BA01C8010E943902823027
:1005B00009F043C09E012F5F3F4F690178013BE086
:1005C000E31A3EEFF30A48014BEC841A4DEF940A0C
:1005D0005601F70134978081882321F0C7010E94DA
:1005E000890003C060E070E0CB01D5016D937D937D
:1005F0008D939D935D01B0E1EB0EF11CE814F904BD
:1006000041F77E01E1E1EE0EF11CD6014D905D90C7
:100610006D907D906D01411451046104710441F0AD
:10062000B301A201C8010E943902823010F40FC048
:1006300083E0CE14DF0449F7EFC1412C512C320185
:10064000843009F4ECC1823010F08DE0E9C1F8018A
:1006500083AD90E0982F882722AD822B81159240A0
:10066000A1F7F801EA5BFF4F8080912C982C882439
:1006700031978081882A8114910419F0A12CB12C22
:1006800007C0C8018D5A9F4F0E9489004B015C0131
:10069000D80157968D929D92AD92BC925A97DF9653
:1006A0004C91DF9712964C9312978FEF840F823004
:1006B00060F6DC96BC91B98B8B2F90E0F8019287A5
:1006C0008187009711F29C012150310982239323E5
:1006D000892B09F0BACFEF5BFF4F808190E0982F14
:1006E0008827319720811C01222AD80118963C9234
:1006F0002E921797C1018F709927892B09F0A5CFEA
:100700003396808190E0982F882731972081822B23
:100710006C01E12CF12C892B49F4C801815B9F4FBE
:100720004E8F0E9489006B017C014E8DD801DE96B0
:10073000EC91DE97F0E0FE2FEE27DD968C91E82B12
:10074000309709F482CFA42FB0E0A50194010E9454
:10075000E3246E8B7F8B888F998F9F0140E050E060
:100760002A8F3B8F4C8F5D8FC101B4E096958795A2
:10077000BA95E1F7280F391F411D511DDA01C90152
:100780002E893F89488D598D280F391F4A1F5B1FBD
:100790002A8B3B8B4C8B5D8BC216D306E406F50689
:1007A00008F453CFC701B601621B730B840B950B82
:1007B000A9892A2F30E040E050E00E94C124211591
:1007C00031054105510509F440CF263FBFEF3B07F6
:1007D0004B07BFE05B0708F038CF263FEFEF3E073F
:1007E0004105510548F4263FFFE03F07410551050B
:1007F00030F481E0898B05C093E0998B02C0A2E0C0
:10080000A98B69017A01B2E0CB0ED11CE11CF11C6D
:10081000F801C38AD48AE58AF68A438E548E658E9F
:10082000768E8A8D9B8DAC8DBD8D840D951DA61DFC
:10083000B71D878F90A3A1A3B2A34A895B896C8956
:100840007D89440D551D661D771D47A350A761A7DF
:1008500072A7F989F33021F5F801E65AFF4F80813C
:1008600090E0982F882731972081822B892B09F0DF
:10087000ECCE232809F0E9CEC801855A9F4F0E948B
:100880008900D80193966D937D938D939C93969751
:1008900072E0CC0CDD1CEE1CFF1C7A95D1F72DC04C
:1008A000232809F4D2CE2E893F89488D598D820F95
:1008B000931FA41FB51FF80183A394A3A5A3B6A3F8
:1008C000F989F23029F4CC0CDD1CEE1CFF1C15C09C
:1008D000A3E0B0E0A70196010E94E324DC01CB0174
:1008E000B695A7959795879521E0C222DD24EE2441
:1008F000FF24C80ED91EEA1EFB1E3FEFC30E31E0D7
:10090000D31EE11CF11C49E0F694E794D794C794F8
:100910004A95D1F78C149D04AE04BF0408F495CE1B
:100920008FEF9FEFDC01F8018787908BA18BB28B53
:1009300083879487A587B68780E88483F989F33015
:1009400009F051C0F801E05AFF4F808190E0982FE4
:10095000882731972081822B019709F044C0B30189
:10096000A2014F5F5F4F6F4F7F4FC8010E94FB0195
:10097000811139C0D80114961C92F801E25DFD4F37
:10098000808190E0982F882731972081822B8535B0
:100990009A4A49F5C8018F960E94890062357245CE
:1009A0008146914401F5C8018D5E9D4F0E948900EA
:1009B0006237724781449146B1F4C801895E9D4F08
:1009C0000E948900D8011F966D937D938D939C930F
:1009D0005297C801855E9D4F0E948900F801638788
:1009E000748785879687E989D801EC938091B60250
:1009F0009091B70201969093B7028093B602169633
:100A00009C938E93159704C08BE00AC08CE008C0BD
:100A100080E006C083E004C0843009F016CE81E097
:100A20006E960FB6F894DEBF0FBECDBFDF91CF91AB
:100A30001F910F91FF90EF90DF90CF90BF90AF90FC
:100A40009F908F907F906F905F904F903F902F90EE
:100A50000895AF92BF92CF92DF92EF92FF920F93E1
:100A60001F93CF93DF938C016A017B0142305105C4
:100A70006105710508F4A8C0F80183899489A589E6
:100A8000B689481759076A077B0708F09DC080811F
:100A9000823009F44DC0833009F471C0813009F00F
:100AA00093C0EA01D695C795C40FD51FCE01892FF3
:100AB00099278695478D50A161A172A1480F591FB2
:100AC000611D711DC8010E94FB01882321F06FEF99
:100AD0007FEFCB017DC05E01FFEFAF1ABF0AD1707F
:100AE000C00FD11FCFA5C501892F99278695F80181
:100AF000478D50A161A172A1480F591F611D711D41
:100B0000C8010E94FB018111E2CFF1E0BF22F80190
:100B1000EA0DFB1D87A56C2F70E0782BC0FE06C088
:100B2000E4E076956795EA95E1F726C07F7024C0EA
:100B300077276F2D5E2D4D2DF801878D90A1A1A1F6
:100B4000B2A1480F591F6A1F7B1FC8010E94FB01F9
:100B50008111BDCFCC0CDD1CE894C0F8F1E0DF22A0
:100B6000F801EC0DFD1D60A970E0762F6627F801F5
:100B7000EC0DFD1D87A5682B80E090E029C0F801F1
:100B8000878D90A1A1A1B2A127E076956795579591
:100B900047952A95D1F7480F591F6A1F7B1FC80137
:100BA0000E94FB01811193CFCC0CDD1CCC0CDD1C11
:100BB000FCEFCF22F1E0DF22C6018F96800F911F5C
:100BC0000E9489009F7004C061E070E080E090E0C6
:100BD000DF91CF911F910F91FF90EF90DF90CF9019
:100BE000BF90AF900895CF92DF92EF92FF920F9354
:100BF0001F93CF93DF938C01FC01C081D1811686B6
:100C00001786108A118AC680D780E084F184C114C7
:100C1000D104E104F104E9F48881833040F08BA130
:100C20009CA1ADA1BEA10097A105B10581F48F8162
:100C30009885892B11F482E04CC08BA19CA1ADA1B9
:100C4000BEA1F801868B978BA08FB18F2EC06C014F
:100C50007D0189859A85892BF1F4B701A601F801F8
:100C6000808191810E9429056B017C016F3F7F4F3C
:100C70008F4F9F4F69F182E0C816D104E104F1045F
:100C8000D0F28B899C89AD89BE89C816D906EA063F
:100C9000FB0618F3D0CFB701A601CE010E94B30026
:100CA000F801668B778B808F918FF801C28AD38A87
:100CB000E48AF58A86899789A08DB18D892B8A2B44
:100CC0008B2B09F4B8CFAF96D38FC28F80E001C0D1
:100CD00081E0DF91CF911F910F91FF90EF90DF9016
:100CE000CF9008956F927F928F929F92AF92BF9212
:100CF000CF92DF92EF92FF920F931F93CF93DF93E8
:100D000000D000D0CDB7DEB73C0149835A836B8356
:100D10007C830E94A70149815A816B817C8181116A
:100D20003AC0C3010E94B3004B015C01F30163A709
:100D300074A785A796A76301FFE2CF0ED11CF60129
:100D4000C301815D9D4F1192E817F907E1F7E12C8E
:100D5000F12CF30181859285E816F90648F081E0CF
:100D6000F30121853285E216F306B1F480E014C068
:100D700001E010E0A50194012E0D3F1D411D511D04
:100D8000B601F30181810E9477008111E8CF8FEFD6
:100D9000E81AF80ADECF81E00F900F900F900F90C5
:100DA000DF91CF911F910F91FF90EF90DF90CF9047
:100DB000BF90AF909F908F907F906F9008952F92EB
:100DC0003F924F925F926F927F928F929F92AF92DB
:100DD000BF92CF92DF92EF92FF920F931F93CF9328
:100DE000DF9300D000D0CDB7DEB71C016A017B01D4
:100DF00028013901423051056105710508F4EEC042
:100E0000FC0183899489A589B689481759076A071F
:100E10007B0708F0E3C08081823009F475C083301D
:100E200009F498C0813009F0D9C05A01B694A7944A
:100E3000A40EB51EC501892F99278695478D50A10F
:100E400061A172A1480F591F611D711DC1010E944E
:100E5000FB01182F8111C3C04501FFEF8F1A9F0AB4
:100E600021E0B222A20CB31CD701C60181709927E0
:100E7000AA27BB2789839A83AB83BC83C0FE0BC0A0
:100E8000D5019F968C91282F2F70B0E14B9EC00109
:100E90001124822B01C0842DF50187A781E0D101A7
:100EA00013968C9313975F964D915D916D917C9104
:100EB0009297C401892F99278695480F591F611D64
:100EC000711DC1010E94FB01182F811188C0B1E082
:100ED0009B22F101E80DF91D89819A81AB81BC81CA
:100EE000892B8A2B8B2B41F054E07694679457948E
:100EF00047945A95D1F706C097A5907F852D8F709E
:100F0000492E482A47A621C077276F2D5E2D4D2DEB
:100F1000F101878D90A1A1A1B2A1480F591F6A1FAD
:100F20007B1FC1010E94FB01182F811158C0CC0CFE
:100F3000DD1CE894C0F8F1E0DF22F101EC0DFD1DAD
:100F400047A6F101EC0DFD1D50AA81E0D1011396D9
:100F50008C9345C0F101878D90A1A1A1B2A127E09A
:100F600076956795579547952A95D1F7480F591F5C
:100F70006A1F7B1FC1010E94FB01182F81112FC026
:100F8000CC0CDD1CCC0CDD1CFCEFCF22F1E0DF2211
:100F900076012FE2E20EF11CE20CF31CC7010E9465
:100FA0008900DC01CB0188279927AA27B07F3FE081
:100FB0007322482A592A6A2A7B2AF101EC0DFD1D69
:100FC00047A6D70111965C92119712966C921297D0
:100FD00013967C9281E0F101838301C012E0812F9E
:100FE0000F900F900F900F90DF91CF911F910F9165
:100FF000FF90EF90DF90CF90BF90AF909F908F9039
:101000007F906F905F904F903F902F9008954F92F8
:101010005F926F927F928F929F92AF92BF92CF9288
:10102000DF92EF92FF920F931F93CF93DF938C0188
:101030004A015B01FC01C081D18141155105610567
:10104000710599F44B845C846D847E844114510451
:101050006104710461F18B899C89AD89BE89481650
:1010600059066A067B0638F122C0CE010E94290586
:101070006B017C01623071058105910508F4ECC0BB
:101080006F3F7F4F8F4F9F4F29F44FEF3FEF2FEF71
:101090009FEFEBC08B899C89AD89BE89C816D906A4
:1010A000EA06FB0608F4DDC02401350104C0412C2A
:1010B000512C320143948F859889A989BA89892B4B
:1010C0008A2B8B2B11F440E0C8C0481459046A04E1
:1010D0007B0409F047C0730162018FEFC81AD80A78
:1010E000E80AF80A8B899C89AD89BE89C816D90699
:1010F000EA06FB0628F092E0C92ED12CE12CF12C57
:10110000B701A601F801808191810E942905613013
:1011100071058105910509F49FC06F3FFFEF7F07BF
:101120008F079F0709F4B1CF672B682B692BA9F0B4
:101130008B859C85AD85BE8582309105A105B10565
:1011400088F04B895C896D897E8984179507A6078D
:10115000B70740F42C013D0105C0C114D104E104DE
:10116000F104E9F5730162012FEFC21AD20AE20A13
:10117000F20A8B899C89AD89BE89C816D906EA0610
:10118000FB0660F082E0481651046104710408F423
:101190009ACF82E0C82ED12CE12CF12CB701A60108
:1011A000F801808191810E942905611571058105F1
:1011B0009105A9F0613071058105910531F06F3F0E
:1011C000FFEF7F078F079F0721F4462F372F282F28
:1011D0004CC0C414D504E604F70431F674CF0FEF05
:1011E0001FEF9801B701A601CE010E94DF06811111
:1011F00030C081149104A104B104E9F4CB86DC86EB
:10120000ED86FE868F859889A989BA894B895C8984
:101210006D897E8942505109610971094817590742
:101220006A077B0790F00197A109B1098F87988B16
:10123000A98BBA8B0AC097018601B501A401CE0122
:101240000E94DF068823D1F204C08C8181608C83E8
:1012500008C0813009F419CF41E030E020E090E08F
:1012600004C04C2D3D2D2E2D9F2D642F732F822FCA
:10127000DF91CF911F910F91FF90EF90DF90CF9072
:10128000BF90AF909F908F907F906F905F904F90A6
:1012900008954F925F926F927F92AF92BF92CF92DA
:1012A000DF92EF92FF920F931F93CF93DF93EC01A6
:1012B0005B0108811981CE84DF84E888F9884E8932
:1012C0005F89688D798D411551056105710509F4B6
:1012D000B3C080E2C80ED11CE11CF11CC114D104C2
:1012E000E0E2EE06F10408F0A7C0D701C601917054
:1012F000AA27BB27892B8A2B8B2B09F08EC04F5F27
:101300005F4F6F4F7F4F4E8B5F8B688F798F4A890E
:101310005B896C897D89F80141155105610571056D
:10132000C1F487819085A0E0B0E0B701A60135E067
:1013300076956795579547953A95D1F74817590788
:101340006A077B0708F469C01E8A1F8A188E198EE7
:1013500073C0818592850197A0E0B0E02601370136
:1013600029E076946794579447942A95D1F784217D
:101370009521A621B721892B8A2B8B2B09F04DC0F3
:10138000C8010E9429052B013C01623071058105CD
:10139000910510F482E053C08FEF48165806680696
:1013A000780611F481E04BC0F80183899489A589FE
:1013B000B689481659066A067B0610F1AB2821F259
:1013C0004A895B896C897D89CE010E9407082B01BF
:1013D0003C01611571058105910581F1613071054F
:1013E00081059105B9F28FEF481658066806780610
:1013F000C9F2B301A201C8010E9472068111D2CFC5
:101400004A8A5B8A6C8A7D8AB301A201C8010E9464
:10141000B3006E8B7F8B888F998FCE86DF86E88AAC
:10142000F98AE1E0DE22FFE2CF0ED11CC00ED11E10
:10143000DB8ECA8E80E003C084E001C087E0DF91CC
:10144000CF911F910F91FF90EF90DF90CF90BF90C1
:10145000AF907F906F905F904F9008954F925F9202
:101460006F927F928F929F92AF92BF92CF92DF92B4
:10147000EF92FF920F931F93CF93DF93FC01C080F5
:10148000D180FB014E2F3F2F21912F32D9F32C35E4
:10149000C9F3042F132FFC011682178210861186C0
:1014A000F8012081203270F0EC017C01FCE1EF0EAC
:1014B000F11C4C0187E2880E911C80E2682E95E0B9
:1014C000792E52C020E8FC0127A3DF91CF911F9114
:1014D0000F91FF90EF90DF90CF90BF90AF909F90D3
:1014E0008F907F906F905F904F900C94F305619276
:1014F000E815F905E1F7F80180E090E020E030E040
:1015000068E070E02F5F3F4F5191513278F5020F44
:10151000131F892B09F487C08C8D853E09F47C8EBE
:10152000513208F44FC080E08FA3A880B980CE016B
:101530000E94F305882309F447C09FA181116AC066
:1015400092FD6DC08C8184FF6CC06E857F8571704B
:10155000615D7F4F6C0D7D1DF60180810E942F0122
:101560006E837F8388879987F701C1CF5F3211F03F
:101570005C3561F4F801E20FF31F9F01201B310B72
:1015800041914F32D1F34C35C1F3C1CF5E3209F4F2
:101590004CC08617970708F046C057FF05C0A52F17
:1015A000B0E0A855BF4F5C91A52EB12CA9E1B1E0E8
:1015B0004D91442309F441C0442E512C4A145B043C
:1015C000B9F731C084E0B0CF4E895F89688D798DDD
:1015D000C5010E94FB018111B0CFEA8DFB8D808196
:1015E0008823A1F083858F738C83838583FD08C056
:1015F0004BE050E0B701CF010E94A400892B41F0DD
:1016000060E070E0CE010E94490994CF84E095CF5C
:1016100080E093CF8430E1F492FF03C019C080E0F2
:1016200017C085E015C086E013C06B307105D9F393
:1016300088E090E06BE070E065CF4FE9450F4A31FC
:1016400008F45052D701A80FB91F5C9301965ACFE6
:10165000DF91CF911F910F91FF90EF90DF90CF908E
:10166000BF90AF909F908F907F906F905F904F90C2
:1016700008950F931F93CF93DF93EC010881198195
:1016800084E04E895F89688D798D4115510561052A
:10169000710501F1C8010E94FB0181111DC0EA8D95
:1016A000FB8D20812223E9F093859F739C83253E47
:1016B00049F02E3239F09F3029F09F71983011F0A7
:1016C00080E011C060E070E0CE010E9449098823EB
:1016D000C1F202C08823A1F31E8A1F8A188E198EB8
:1016E00002C084E0F9CFDF91CF911F910F9108954F
:1016F000EF92FF920F931F93CF938C01DC01ED903B
:10170000FC900E94F305C82F81111BC0F801468987
:101710005789608D718DC7010E94FB01C82F81110F
:1017200010C0D8015A96ED91FC915B978081853E5F
:1017300061F0882351F061E070E0C8010E9449091E
:10174000E2CFC43031F5C7E024C0F801468957899B
:10175000608D718DC7010E94FB01C82F811119C0D6
:10176000D8015A96ED91FC915B97CF01809611922A
:10177000E817F907E1F7B801645E7F4F4BE050E0EE
:10178000F801828D938D0E94240181E0D701139688
:101790008C938C2FCF911F910F91FF90EF90089514
:1017A0004F925F926F927F928F929F92AF92BF9271
:1017B000EF92FF920F931F93CF93DF937C014A0127
:1017C0005B01B901A801FC01C081D181F2E08F1653
:1017D0009104A104B10410F482E061C08B899C895A
:1017E000AD89BE8988169906AA06BB06A8F7012B03
:1017F000022B032B41F00FEF1FEF9801CE010E9447
:10180000DF0681114CC0B501A401F70180819181EF
:101810000E9429052B013C01611571058105910587
:1018200011F480E03CC06130710581059105A1F2A1
:101830006F3F7F4F8F4F9F4F89F100E010E098017D
:10184000B501A401CE010E94DF06811128C08F8559
:101850009889A989BA894B895C896D897E894A01F1
:101860005B01E2E08E1A9108A108B108881599057C
:10187000AA05BB0550F40196A11DB11D8F87988B59
:10188000A98BBA8B8C8181608C83530142014416F1
:1018900055066606770608F4B6CFC3CF81E0DF9120
:1018A000CF911F910F91FF90EF90BF90AF909F90BD
:1018B0008F907F906F905F904F9008950F931F933C
:1018C000CF93DF93EC010E94A701982F811161C093
:1018D0008881833009F053C08C81813009F04FC07A
:1018E000BE01615D7F4FFB01CE01815D9D4F119275
:1018F000E817F907E1F785E5FE01E35DFD4F808319
:101900008AEA3196808382E58FA788AB81E689AB2E
:1019100091E49AAB22E77B9720833196208331961E
:101920009083319680833F85288999898A89319669
:1019300030833196208331969083319680833B8526
:101940002C859D858E853196308331962083319606
:101950009083319680838B8D9C8DAD8DBE8D9C0147
:10196000AD012F5F3F4F4F4F5F4F2BA73CA74DA7B8
:101970005EA701E010E089810E9477001C8240E0B0
:1019800050E060E089810E94870091E0811101C0F0
:1019900090E0892FDF91CF911F910F910895CF9300
:1019A000DF93CDB7DEB727970FB6F894DEBF0FBE33
:1019B000CDBF9C838B837E836D837A836983CE01C5
:1019C00001964F830E94DB004F8197FD20C0880F56
:1019D000991FFC01E854FD4F0190F081E02D3097F4
:1019E00009F01082EB81FC81309709F01082DC0154
:1019F000A854BD4FED93FC93442359F040E0BE0141
:101A00006D5F7F4FCE0105960E947F0203C08BE081
:101A100001C080E027960FB6F894DEBF0FBECDBFA1
:101A2000DF91CF9108954F925F926F927F928F9244
:101A30009F92AF92BF92DF92EF92FF920F931F930C
:101A4000CF93DF93CDB7DEB7E0970FB6F894DEBF44
:101A50000FBECDBF7CA76BA7009709F456C1142F0A
:101A60007C01242F2F73D22E422FBE01675D7F4F42
:101A7000CE018B960E947F02811152C189A59AA541
:101A80009A8389836BA57CA5CE0101960E942E0ABC
:101A9000811103C098A597FD86E0912F9C7109F4F0
:101AA00067C0882361F0843021F4CE0101960E9442
:101AB000780B3D2D3860D32E882339F031C18D81CC
:101AC000817109F028C112FD22C1D3FE5AC06B8C6E
:101AD0007C8C09A51AA5B301D8018C910E942F0115
:101AE0004B015C01F3011686178681EA808B8AE43C
:101AF000818BEB8DFC8D80E283876B8D7C8D20E06C
:101B000030E0A901C8010E944C01EB8DFC8D148EC0
:101B1000158E168E178EE9A5FAA581E083838114B0
:101B20009104A104B10469F143A454A465A476A46A
:101B300000E010E09801B501A401CE0101960E94D9
:101B4000D00B8111EDC0B301A20189A59AA50E9415
:101B5000FB01E9A5FAA5B501A401415051096109AC
:101B600071094387548765877687882351F0D8C0E9
:101B70008111D6C08D8184FDCCC011FF02C080FDD3
:101B8000CAC0D3FE03C0FD2DF064DF2E09A51AA53F
:101B9000F80183A594A5A5A5B6A5F701848F958F17
:101BA000A68FB78FAB8CBC8CB1A2A0A2B501D80117
:101BB0008C910E942F012B013C01F70166837783F2
:101BC00080879187C5014C960E9489004B015C017A
:101BD000D7011A966D937D938D939C931D971196C3
:101BE0001C930E93F8018581968113969C938E9396
:101BF00012971E96DC921E971F961C921F9758965E
:101C00001D921D921D921C925B97F701108A118AFA
:101C1000128A138AD5FE81C081149104A104B104F3
:101C200009F47BC050968D929D92AD92BC925397D1
:101C3000F80181859285A0E0B0E09C01AD0169E0EA
:101C4000220F331F441F551F6A95D1F72DA73EA7BA
:101C50004FA758AB2DA53EA54FA558A92815390566
:101C60004A055B0518F5B301A201D7018D919C913E
:101C70000E9429052B013C01623071058105910507
:101C800038F06F3F7F4F8F4F9F4F21F080E003C0B0
:101C900082E001C081E02DA53EA54FA558A9821A7A
:101CA000930AA40AB50A8823A9F201C080E0D701EB
:101CB00054964D925D926D927C925797811130C0EF
:101CC000D501C4019170AA27BB27892B8A2B8B2BA6
:101CD00021F1B301A20189A59AA50E94B300611563
:101CE000710581059105D9F029E0B694A7949794E0
:101CF00087942A95D1F7860E971EA81EB91EF70164
:101D0000808E918EA28EB38E08C089E00CC088E0D0
:101D100007C084E005C087E003C080E004C082E023
:101D2000D7011D921C92E0960FB6F894DEBF0FBE4D
:101D3000CDBFDF91CF911F910F91FF90EF90DF907A
:101D4000BF90AF909F908F907F906F905F904F90DB
:101D500008952F923F924F925F926F927F928F924F
:101D60009F92AF92BF92CF92DF92EF92FF920F932A
:101D70001F93CF93DF9300D000D0CDB7DEB77C01A7
:101D80004B015A013C832B83F90111821082BE0161
:101D90006F5F7F4F0E94FA00811112C1F7018785A2
:101DA00081110EC1868580FF0AC182859385A48535
:101DB000B5854089518962897389841B950BA60B6F
:101DC000B70BA50160E070E084179507A607B70779
:101DD00008F07BC05C0179C0F70180899189A289F4
:101DE000B389AC01BD01517066277727452B462B7F
:101DF000472B09F0BBC0E981FA81018512850150AA
:101E00001109AC01BD01E9E07695679557954795B5
:101E1000EA95D1F7042315230115110509F45AC0D9
:101E200029803A80F7014489558966897789C101FB
:101E30000E94B300611571058105910509F461C027
:101E40002B013C01400E511E611C711C6501CD2C03
:101E5000DD24C694C114D10409F483C0F101818545
:101E600092859601200F311F8217930718F46C0199
:101E7000C01AD10A8601A3019201B401F101818146
:101E80000E946700811145C0E981FA818381811137
:101E90004AC0DC2CCC24DD0CAC18BD08EB81FC81E5
:101EA000808191818C0D9D1D918380838C0C9D1C64
:101EB000F70180899189A289B3898C0D9D1DA11D8F
:101EC000B11D808B918BA28BB38BA114B10409F04F
:101ED00083CF73C0F701892B8A2B8B2B29F4668162
:101EE00077818085918508C044895589668977897D
:101EF000808191810E9429056230710581059105DB
:101F000010F482E007C06F3FFFEF7F078F079F0746
:101F100021F481E0F701878753C0F701648B758B4B
:101F2000868B978B7DCF83A594A5A5A5B6A584198F
:101F30009509A609B709A60160E070E08417950726
:101F4000A607B70708F0A5CFBF01615D7F4F982FA7
:101F50008827990F40E052E0880D991D0E942401C6
:101F600098CFF701408E518E628E738EF701808973
:101F70009189917020E032E0281B390B65012A1508
:101F80003B0508F46901F701408D518D628D738D19
:101F900089819A810E94FB018111BBCFF701608981
:101FA00071897170615D7F4F89819A81680F791F96
:101FB000A601C4010E9424016FCF80E001C087E028
:101FC0000F900F900F900F90DF91CF911F910F9175
:101FD000FF90EF90DF90CF90BF90AF909F908F9049
:101FE0007F906F905F904F903F902F9008952F9229
:101FF0003F924F925F926F927F928F929F92AF9299
:10200000BF92CF92DF92EF92FF920F931F93CF93E5
:10201000DF9300D000D0CDB7DEB77C014B015A0171
:102020003C832B83F90111821082BE016F5F7F4FC9
:102030000E94FA0081116EC1F701878581116AC182
:10204000868581FF66C180899189A289B389AC01A7
:10205000BD014A0D5B1D611D711D481759076A07B7
:102060007B0708F0BBC05C01A094B094B7C0F70137
:1020700080899189A289B389AC01BD01517066271D
:102080007727452B462B472B09F019C1E981FA81A7
:102090000185128501501109AC01BD01E9E0769579
:1020A000679557954795EA95D1F7042315230115B0
:1020B000110509F498C089819A81FC0143A454A4B4
:1020C00065A476A4F701408D518D628D738D441601
:1020D00055066606770609F4CEC069807A80F70156
:1020E0004489558966897789C3010E94B3006115C7
:1020F00071058105910509F49FC01B012C01200E7B
:10210000311E411C511C6501CD2CDD24C694C11427
:10211000D10409F4B6C0F301818592859601200FA0
:10212000311F8217930718F46C01C01AD10A860177
:10213000A2019101B401F30181810E947700811114
:1021400083C089819A81FC0143A554A565A576A524
:102150004219530964097509860120E030E04017EF
:1021600051076207730770F4542F4427550FB401C9
:10217000640F751F40E052E08F960E942401E981B0
:10218000FA811382DC2CCC24DD0CAC18BD08EB8169
:10219000FC81808191818C0D9D1D918380838C0CAD
:1021A0009D1CF70180899189A289B3898C0D9D1DA1
:1021B000A11DB11D808B918BA28BB38B4285538562
:1021C0006485758584179507A607B70710F4DB01AA
:1021D000CA01F70182879387A487B587A114B10448
:1021E00009F045CF1EC0F701892B8A2B8B2B69F490
:1021F00066817781808591856115710581059105DD
:10220000B1F440E050E0BA0104C0448955896689C0
:102210007789C7010E94070861157105810591053D
:1022200031F4F70186858064868780E073C0613071
:1022300071058105910511F482E007C06F3FFFEF42
:102240007F078F079F0721F481E0F701878762C02E
:10225000F701648B758B868B978B468057806084E3
:10226000718445284628472809F025CF668377835F
:102270008087918720CF0E94A701882309F42DCF62
:10228000E3CFF701408951896289738982859385FB
:10229000A485B585481759076A077B0758F0C3011D
:1022A0000E94A7018111D0CFE981FA8123A634A62B
:1022B00045A656A6F701208E318E428E538EF70129
:1022C00080899189917020E032E0281B390B6501EB
:1022D0002A153B0508F46901F701408D518D628D87
:1022E000738D89819A810E94FB018111ADCFF70125
:1022F0008089918991708F9629813A81A601B401D4
:10230000820F931F0E942401E981FA8121E0238337
:102310003CCF87E00F900F900F900F90DF91CF91FF
:102320001F910F91FF90EF90DF90CF90BF90AF90F3
:102330009F908F907F906F905F904F903F902F90E5
:102340000895DF92EF92FF920F931F93CF93DF9345
:1023500000D0CDB7DEB78C01D62E2AE0621303C0C1
:102360006DE00E94A111F8018281938197FD2DC03B
:102370007C01FFEFEF1AFF0AF801E80FF91FD68280
:102380002DE3E216F104CCF09E012F5F3F4FA70131
:10239000B8016A5F7F4FF801808191810E94F70F39
:1023A00081E090E029813A812E153F0511F480E00B
:1023B00090E0EE24FF24E81AF90AF801F382E282A1
:1023C000848195810196958384830F900F90DF918E
:1023D000CF911F910F91FF90EF90DF9008950F9391
:1023E0001F93CF93DF9300D0CDB7DEB7FC014281BE
:1023F000538157FF03C08FEF9FEF18C08C01BC01C2
:102400006A5F7F4F9E012F5F3F4FFC01808191816A
:102410000E94F70F8111EFCFF8012281338189816A
:102420009A812817390739F7848195810F900F9089
:10243000DF91CF911F910F910895EF92FF920F932B
:102440001F93CF93DF9300D0CDB7DEB77C01BE01E1
:102450006F5F7F4F0E94FA0081113CC0F7019685A3
:1024600096FF38C0448D558D668D778D89819A8110
:102470000E94FB0181112EC0F70100A111A1F801FA
:10248000838580628387F701268137814085518566
:10249000B801808191810E944C01F701328523852A
:1024A00094858585F801348F258F968F878F168ABE
:1024B000178A81EA808F8AE4818F128A138A898140
:1024C0009A8121E0FC0123830E945E0CF70196852E
:1024D0009F7B96870F900F90DF91CF911F910F9167
:1024E000FF90EF9008950F931F93CF93DF9300D049
:1024F000CDB7DEB78C010E941D1281110BC0BE0149
:102500006F5F7F4FC8010E94FA00811103C0F8017C
:10251000118210820F900F90DF91CF911F910F9138
:1025200008954F925F926F927F928F929F92AF9297
:10253000BF92CF92DF92EF92FF920F931F93CF93B0
:10254000DF9300D000D000D0CDB7DEB78C016A0198
:102550007B01BE016F5F7F4F0E94FA0081115CC159
:10256000D8011F968C911F97811156C11A968D9193
:102570009D910D90BC91A02D8C159D05AE05BF05BC
:1025800030F4F801268521FD02C06C017D01D801DF
:1025900050968D909D90AD90BC905397F801108A05
:1025A000118A128A138AC114D104E104F10421F4BE
:1025B000C12CD12C760105C1E981FA8181859285F2
:1025C000A0E0B0E02C013D0139E0440C551C661C34
:1025D000771C3A95D1F781149104A104B10409F450
:1025E0003FC0F1E08F1A9108A108B108C701B601F8
:1025F0006150710981099109A30192010E94C124CE
:102600002B833C834D835E83C501B401A3019201FA
:102610000E94C1248B819C81AD81BE81821793076A
:10262000A407B507E8F088279927DC0184199509E4
:10263000A609B70988229922AA22BB22D80150965E
:102640008D929D92AD92BC925397C818D908EA0812
:10265000FB0854964D915D916D917C91579732C0D6
:10266000F8014681578160857185411551056105E5
:10267000710519F540E050E0BA01C8010E94070851
:10268000AB01BC01413051056105710529F482E0BF
:10269000D8011F968C93C0C04F3FBFEF5B076B07FD
:1026A0007B0721F481E0F8018787B6C0D801169630
:1026B0004D935D936D937C931997F801448B558BE3
:1026C000668B778B411551056105710509F470CF53
:1026D0004C145D046E047F0408F047C0C418D5088C
:1026E000E608F708F80180899189A289B389840DE9
:1026F000951DA61DB71D808B918BA28BB38B8685F4
:1027000081FF0BC0C8010E940708AB01BC01411545
:1027100051056105710539F425C0808191810E94C0
:102720002905AB01BC014F3FBFEF5B076B077B0780
:1027300009F4B8CF423051056105710508F4A7CFFF
:10274000E981FA8183899489A589B689481759074F
:102750006A077B0708F09BCFF801448B558B668B8B
:10276000778BB6CFC12CD12C7601F8018089918965
:10277000A289B3898C0D9D1DAE1DBF1D808B918BD1
:10278000A28BB38BD701C6019170AA27BB27892BD7
:102790008A2B8B2B09F40CCF89819A810E94B3007C
:1027A000611571058105910509F471CF29E0F69451
:1027B000E794D794C7942A95D1F7C60ED71EE81E82
:1027C000F91EF80180899189A289B38942855385D0
:1027D00064857585481759076A077B0738F482872F
:1027E0009387A487B5872685206426879170AA27BA
:1027F000BB27892B8A2B8B2B71F0F801808D918D53
:10280000A28DB38DC816D906EA06FB0621F0C08E4C
:10281000D18EE28EF38E80E026960FB6F894DEBF5E
:102820000FBECDBFDF91CF911F910F91FF90EF9021
:10283000DF90CF90BF90AF909F908F907F906F90E0
:102840005F904F9008950F931F93CF93DF9300D025
:1028500000D0CDB7DEB77C836B830097D9F18C01B4
:1028600040E0BE016F5F7F4FCE0103960E947F0262
:1028700081112CC089819A81F801918380836B81B9
:102880007C81C8010E942E0A81112AC0F80187A10B
:1028900087FD0FC0848184FF18C0628D738DE9812C
:1028A000FA8180810E942F01F801668377838087F7
:1028B0009187E981FA8185819681F80193838283EA
:1028C000C8010E94F305843039F485E0F8011182D3
:1028D000108209C089E007C08111F8CF80E003C0F1
:1028E0008430A1F7F2CF0F900F900F900F90DF91EF
:1028F000CF911F910F9108950F931F93CF93DF9363
:1029000000D0CDB7DEB78C01BE016F5F7F4F0E9454
:10291000FA00811103C0F801118210820F900F900C
:10292000DF91CF911F910F910895CF92DF92FF9287
:102930000F931F93CF93DF9300D0CDB7DEB78C01F9
:102940006B01BE016F5F7F4F0E94FA00F82E81116C
:1029500023C0C801C114D10419F40E94F3051BC09F
:102960000E94390B982F9B7FB1F4F6011186F80174
:1029700086899789A08DB18D892B8A2B8B2B21F08D
:10298000B601C8010E94590160E070E0C8010E94D0
:102990004909843009F0F82E8F2D0F900F90DF91A8
:1029A000CF911F910F91FF90DF90CF900895EF92FC
:1029B000FF921F93CF93DF93CDB7DEB7AA970FB6E1
:1029C000F894DEBF0FBECDBF9AA789A77B0140E078
:1029D000BE016F5F7F4FCE0189960E947F02182F44
:1029E000811120C069A57AA5CE0101960E942E0A08
:1029F000182F811117C088A587FD13C0E114F104B9
:102A000089F0F70111868F89988DA98DBA8D892B50
:102A10008A2B8B2B39F0B701CE0101960E94590108
:102A200001C016E0812FAA960FB6F894DEBF0FBE44
:102A3000CDBFDF91CF911F91FF90EF9008953F920E
:102A40004F925F926F927F928F929F92AF92BF92BE
:102A5000CF92DF92EF92FF920F931F93CF93DF936A
:102A6000CDB7DEB72A970FB6F894DEBF0FBECDBF45
:102A70009C838B837E836D837A0140E0BE016F5F10
:102A80007F4FCE0103960E947F02382E8111C6C06F
:102A900009811A81D7010D931C93F80187859089CC
:102AA000A189B28983889488A588B688B501A401D4
:102AB0004250510961097109481759076A077B0794
:102AC00038F0ED81FE8180839183A283B383A6C019
:102AD00080818130A1F532E0832E912CA12CB12C84
:102AE000C12CD12C7601B501A401C8010E94290591
:102AF0006F3FBFEF7B078B079B0709F479C06130FD
:102B000071058105910509F476C0672B682B692B47
:102B100029F4EFEFCE1ADE0AEE0AFE0AFFEF8F1A53
:102B20009F0AAF0ABF0AE981FA8183899489A5893E
:102B3000B68988169906AA06BB06A8F260C0478C1B
:102B400050A061A072A000E010E0C12CD12C760151
:102B500001151105A9F4D301C2010196A11DB11DF2
:102B60008F839887A987BA87B301A20189819A8147
:102B70000E94FB01811142C04F80588469847A848D
:102B8000E981FA812081C8018F962230B1F4DF01FA
:102B9000A80FB91F11968C9190E0982F8827E00F0D
:102BA000F11F27A5822B892B29F49FEFC91AD90A77
:102BB000E90AF90A0E5F1F4F12C08E0F9F1F0E9475
:102BC0008900DC01CB01BF70892B8A2B8B2B29F468
:102BD000AFEFCA1ADA0AEA0AFA0A0C5F1F4F11703D
:102BE000B1E08B1A9108A108B10809F0B1CF07C074
:102BF0003324339404C082E0382E01C0382EED8196
:102C0000FE81C082D182E282F382E981FA81C786A5
:102C1000D08AE18AF28A848181608483832D2A9616
:102C20000FB6F894DEBF0FBECDBFDF91CF911F91DD
:102C30000F91FF90EF90DF90CF90BF90AF909F905B
:102C40008F907F906F905F904F903F900895EF929C
:102C5000FF920F931F93CF93DF9300D0CDB7DEB7D2
:102C60007C01BE016F5F7F4F0E94FA0081116CC032
:102C7000F7011785111163C0868581FF62C08089C5
:102C80009189A289B38942855385648575858417A6
:102C90009507A607B70708F056C0892B8A2B8B2B00
:102CA00089F4468157816085718500E010E09801C4
:102CB000C7010E94D00B182FF701168217821086C9
:102CC00011862EC0F70144895589668977898081EC
:102CD00091810E942905AB01BC014F3FFFEF5F07C7
:102CE0006F077F0739F0413051056105710521F407
:102CF00012E016C011E014C0E981FA818389948939
:102D0000A589B689481759076A077B0748F4F70170
:102D10000489158926893789C7010E94D00B182F8D
:102D2000F70180899189A289B38982879387A487D3
:102D3000B587868580648687112329F01787812FC0
:102D400003C087E001C080E00F900F90DF91CF912A
:102D50001F910F91FF90EF900895BF92CF92DF9255
:102D6000EF92FF920F931F93CF93DF93CDB7DEB710
:102D7000C455D1090FB6F894DEBF0FBECDBF65961E
:102D80009FAF8EAF659742E0BE016F5A7F4FCE0175
:102D90008D5A9F4F0E947F0281116EC063968EAD47
:102DA0009FAD63979AA789A765966EAD7FAD65972E
:102DB000CE0189960E942E0A81115EC061968FAD68
:102DC000619787FD28C0BDA4B0FC27C063960EADF7
:102DD0001FAD639725966EAD7FAD2597F801808175
:102DE0000E942F016B017C01B4FE19C01A83098374
:102DF000CF82D886E986FA86CE0101960E94F30535
:102E000081113AC0CE0101960E94390B882329F026
:102E1000843029F031C086E02FC087E02DC009A59D
:102E20001AA523964CAD5DAD6EAD7FAD2397C8015D
:102E30000E94FB01811120C02596EEADFFAD2597C4
:102E400085EE808381E0F8018383C114D104E1041D
:102E5000F10439F463968EAD9FAD63970E945E0CCA
:102E60000BC000E010E09801B701A601CE018996E1
:102E70000E94D00B882371F3CC5ADF4F0FB6F89421
:102E8000DEBF0FBECDBFDF91CF911F910F91FF909D
:102E9000EF90DF90CF90BF9008954F925F926F9226
:102EA0007F928F929F92AF92BF92CF92DF92EF92DA
:102EB000FF920F931F93CF93DF93CDB7DEB7AC97FD
:102EC0000FB6F894DEBF0FBECDBF9CA78BA742E024
:102ED000BE01675D7F4FCE018B960E947F02F82E68
:102EE0008111C3C089A59AA59A8389836BA57CA506
:102EF000CE0101960E942E0AF82E8823A9F124E023
:102F00008213B3C040E050E0BA01CE0101960E94A6
:102F100007084B015C0189A59AA5FC0141855285F2
:102F200060E070E0E9E0440F551F661F771FEA95E7
:102F3000D1F74B875C876D877E8781149104A1044C
:102F4000B104A9F0F1E08F169104A104B10491F449
:102F500082E0F82E00E010E09801B501A401CE0156
:102F600001960E94D00B81C028E0F22E7EC097E02F
:102F7000F92EF0CFFFEF8F169F06AF06BF0609F4BC
:102F800071C00E94A701F82E8111E4CFB501A40100
:102F900089A59AA50E947206F82E8111DBCFE9A4BB
:102FA000FAA467012FE2C20ED11CF601C701CA962E
:102FB00020E22193E817F907E1F73EE2432EF701FB
:102FC00047A640E1742E72AEEB5BFF4F1082319644
:102FD0001082319651EA552E508231966AE4662E5F
:102FE0006082A5019401B60189A59AA50E944C01B1
:102FF0008701015B1F4F40E250E0B601C8010E940B
:103000002401F701E05BFF4F40822F81388549851D
:103010005A85B80189A59AA50E944C01E9A5FAA58F
:10302000EE24E394E382CE0101960E94780BF82E01
:10303000811190CF0B8D1C8DF801168A178A508E46
:10304000618EA5019401B80189A59AA50E944C0141
:10305000F801738689A59AA5FC01E3820E945E0CA3
:10306000F82E03C0FF24F39475CF8F2DAC960FB6C6
:10307000F894DEBF0FBECDBFDF91CF911F910F91AE
:10308000FF90EF90DF90CF90BF90AF909F908F9088
:103090007F906F905F904F900895DF92EF92FF9234
:1030A0000F931F93CF93DF93CDB7DEB7C657D109E8
:1030B0000FB6F894DEBF0FBECDBFE5969FAF8EAFC3
:1030C000E597E7967FAF6EAFE797CE018B589F4F9E
:1030D0000E94DB0042E0BE016F587F4FCE018D5849
:1030E0009F4F0E947F028111DAC0E3968EAD9FADA3
:1030F000E3979AA789A7E5966EAD7FADE597CE01D8
:1031000089960E942E0A8111CAC061968FAD61977F
:10311000807A09F0A2C025966EAD7FAD259740E27A
:1031200050E0CE018F5A9F4F0E94240148E250E0A8
:10313000BE01675D7F4FCE0101960E942401E79694
:103140006EAD7FADE797CE0101960E942E0A8111E8
:103150001DC04F81588569857A858FA598A9A9A931
:10316000BAA9481759076A077B0709F078C04F8545
:10317000588969897A898FA998ADA9ADBAAD4817E0
:1031800059076A077B0709F06AC003C0843009F059
:1031900086C0CE0101960E94780B811180C00B8DF4
:1031A0001C8D61E570E06C0F7D1F635F7F4F43E115
:1031B00050E0C8010D960E9424016D968FAD6D9769
:1031C00084FF8062F8018387E396EEACFFACE3975F
:1031D000DD24D394F701D382F801838584FF43C0B3
:1031E0004FA558A969A97AA98F819885A985BA851B
:1031F000481759076A077B07B1F1B801F7018081C9
:103200000E942F01AB01BC01C7010E94B300AB01BA
:10321000BC01411551056105710519F1C7010E94F5
:10322000FB01E396EEADFFADE397811138C0DF01FE
:10323000A05BBF4F8C918E32B1F42F8138854985C8
:103240005A85BF01615B7F4FCF010E944C01E3961D
:10325000EEADFFADE397D38206C086E020C088E0E4
:103260001EC082E01CC009A51AA523964CAD5DAD19
:103270006EAD7FAD2397C8010E94FB0181110FC085
:103280002596EEADFFAD259785EE808381E0F801B0
:103290008383E3968EAD9FADE3970E945E0CCA5880
:1032A000DF4F0FB6F894DEBF0FBECDBFDF91CF91D9
:1032B0001F910F91FF90EF90DF9008958F929F9252
:1032C000AF92BF92CF92DF92EF92FF920F931F9334
:1032D000CF93DF9300D000D0CDB7DEB77C014A0199
:1032E0008C01C12CD12C5B0181E0A81AB108CA1451
:1032F000DB04E4F49E012F5F3F4F41E050E0BE014C
:103300006D5F7F4FC4010E94A90E89819A81019748
:1033100069F48B818D3059F30F5F1F4FF80131979E
:1033200080839FEFC91AD90A8A3009F7F801108201
:10333000CD2811F0C70102C080E090E00F900F90FF
:103340000F900F90DF91CF911F910F91FF90EF9011
:10335000DF90CF90BF90AF909F908F900895CF93C4
:10336000DF93CDB7DEB7C654D1090FB6F894DEBFF0
:103370000FBECDBF7A8369831C821B821E821D8291
:10338000682FCE0101960E94A111CE0101960E94E4
:10339000EF11CA5BDF4F0FB6F894DEBF0FBECDBF93
:1033A000DF91CF9108950F931F93CF93DF93CDB704
:1033B000DEB7C654D1090FB6F894DEBF0FBECDBF3D
:1033C0007A8369831C821B821E821D828C01F80114
:1033D00061918F01CE010196662319F00E94A1111F
:1033E000F6CF0E94EF11CA5BDF4F0FB6F894DEBF35
:1033F0000FBECDBFDF91CF911F910F9108952F92F6
:103400003F924F925F926F927F928F929F92AF9274
:10341000BF92CF92DF92EF92FF920F931F93CF93C1
:10342000DF93CDB7DEB7CC56D1090FB6F894DEBF27
:103430000FBECDBFCD57DF4FA880B980C358D04055
:10344000CF57DF4F88819981C158D0409A838983B3
:103450001C821B821E821D827E0125E8E20EF11C69
:103460001E0147E4240E311CD5016C91662309F43A
:103470004EC1653221F0BFEFAB1ABB0A9AC0F5010D
:103480001181103331F43396D50112961C9101E06D
:103490000BC0F5011D3219F0329600E005C03396DD
:1034A000D50112961C9102E0812C912C5F0180EDD8
:1034B000810F8A3070F4BAE0B89DC001B99D900DBB
:1034C00011244C01810E911C20E3821A9108119164
:1034D000EDCF812F8F7D8C3429F404604FEFA41A37
:1034E000B40A1081112309F412C18FE9810F8A31C6
:1034F00018F420EE210F01C0212F2F34E1F050F4F9
:10350000233409F448C0243409F45AC0223409F49D
:1035100055C04EC0253509F453C0283509F446C0BE
:10352000233509F045C0F7016080718082E0E80E24
:10353000F11CF30102C038E044C0CF01861997099D
:1035400021912111FACF6C0101FD0EC06C01AFEF8A
:10355000CA1ADA0A8815990538F460E2CE01019694
:103560000E94A111C601F2CFF30161913F016623D0
:1035700029F0CE0101960E94A111F6CFC814D904FA
:1035800008F072CF60E2CE0101960E94A111FFEF18
:10359000CF1ADF0AF3CF87010E5F1F4FD7016C915F
:1035A000CE0101960E94A11178015ECF30E109C0E1
:1035B000612FCE0101960E94A11156CF32E001C0C9
:1035C0003AE002FF0BC0F701608171818281938133
:1035D000B4E0EB0EF11C243409F516C0A7014E5FD0
:1035E0005F4F243449F4F70180819181BC01990F28
:1035F000880B990B7A0108C0D7018D919C91BC0171
:1036000080E090E07A010AC097FF08C0909580950D
:10361000709561957F4F8F4F9F4F0860A9963FAE81
:103620002EAEA997C12CD12C432E512C612C712C7C
:10363000AD964CAE5DAE6EAE7FAEAD97AD962CAD99
:103640003DAD4EAD5FADAD970E94C1242B013C0155
:10365000E62FCA01B901AAE04A16510461047104B7
:1036600030F0183711F0E7E001C0E7E2E40DBFEFFA
:10367000CB1ADB0AE05DA996AEADBFADA997ED937D
:10368000A996BFAFAEAFA997232B242B252B21F0F2
:10369000B0E2CB16D10491F603FF09C0F101EC0DA5
:1036A000FD1D2DE2422E4082C60101966C0100FDF7
:1036B00003C090E2792E02C080E3782E01FD0EC097
:1036C000C6018C010F5F1F4F8815990540F4672DC7
:1036D000CE0101960E94A111C801F3CF8601C20C50
:1036E000D31CD6016E916D01CE0101960E94A111ED
:1036F000C214D304B1F70815190508F0B5CE672D2B
:10370000CE0101960E94A1110F5F1F4FF4CFCE0191
:1037100001960E94EF11C459DF4F0FB6F894DEBF37
:103720000FBECDBFDF91CF911F910F91FF90EF9012
:10373000DF90CF90BF90AF909F908F907F906F90D1
:103740005F904F903F902F9008952F923F924F920D
:103750005F926F927F928F929F92AF92BF92CF9221
:10376000DF92EF92FF920F931F93CF93DF93CDB72A
:10377000DEB7CD57D1090FB6F894DEBF0FBECDBF6F
:10378000E82E1E0123E6220E311CC1010E940F1EED
:103790008E010C581F4FF12C81E090E08E199F098B
:1037A000D8018D939C934E01B2E78B0E911CF401CE
:1037B000F182E08243E368EA71E09E012F5F3F4FB0
:1037C0006901C9010E94130D877F09F0B5C04988BE
:1037D0005A886B887C88411451046104710409F48F
:1037E0007BC040E050E0BA01C6010E949112AE01D8
:1037F0004D5D5F4F5A0129893A894B895C89EA9668
:103800002CAF3DAF4EAF5FAFEA978B859C85AD8502
:10381000BE85281739074A075B0769F0A60160E2F1
:1038200070E0C5010E945E19EA964CAC5DAC6EACCE
:103830007FACEA97E0CF542D452D362D272DEA9603
:103840004CAC5DAC6EAC7FACEA97D101F50188E081
:103850008A0D61919D9169133FC08E13FACF9F929B
:103860008F921F930F938EEB91E09F938F93BF9254
:10387000AF92EE962FAFEE97ED963FAFED97EC96A9
:103880004FAFEC97EB965FAFEB970E94CE25D80138
:103890008D919C91119701968E199F098D939C9300
:1038A000F40180819181E80EF91EF182E0820FB669
:1038B000F894DEBF0FBECDBFEB965FADEB97452E04
:1038C000EC964FADEC97542EED963FADED97632EF1
:1038D000EE962FADEE97722ED40111968C91119722
:1038E0008F938C918F93F80181818F9380818F9337
:1038F0003F922F9281EB91E09F938F938E010D5B0E
:103900001F4F1F930F930E94AB25B301A201C60165
:103910000E9491121F930F938AEB91E09F938F93D4
:10392000DF92CF920E94FF19C6010E9473120FB658
:10393000F894DEBF0FBECDBFC358DF4F0FB6F8946B
:10394000DEBF0FBECDBFDF91CF911F910F91FF90D2
:10395000EF90DF90CF90BF90AF909F908F907F902F
:103960006F905F904F903F902F90089587B18C603B
:1039700087B92098219A14BC8AE386BD81E08093A0
:103980006E0085BD789408951F920F920FB60F9226
:1039900011242F938F939F938AE386BD809100011A
:1039A000833011F4429801C0439828B181E090E03F
:1039B0000090000102C0880F991F0A94E2F7822745
:1039C00088B99F918F912F910F900FBE0F901F90EC
:1039D000189583E080930001089582E080930001B0
:1039E000089583E0809300018FE19EE40197F1F751
:1039F00000C0000023B19FE738E341E09150304020
:103A00004040E1F700C0000082E0809300018FE1B8
:103A10009EE40197F1F700C0000083B1817091E04E
:103A200089273FE748E351E0315040405040E1F7FB
:103A300000C0000020FD0BC0882311F0299A11C09E
:103A400029988091BA02882389F080E008C02998DB
:103A5000882351F08091BA02882341F081E00E94CE
:103A6000A51B1092BA0208959093BA020895CF93BD
:103A7000DF93CDB7DEB7CF52D2400FB6F894DEBF9A
:103A80000FBECDBF0E94B61C0E9475220E94AA1FC5
:103A90000E94352040E062EE71E0CE0101960E9466
:103AA000CF0C0E94F4220E94F11C0E94F11C0E9483
:103AB000F11C0E94F11C0E946F23F5CF1092B900F7
:103AC00088E48093B800089584EA8093BC008091D4
:103AD000BC0087FFFCCF9091B900987F81E09830BF
:103AE00009F080E008958093BB0084E88093BC00D7
:103AF0008091BC0087FFFCCF9091B900987F81E056
:103B0000983109F080E008958093BB0084E88093A9
:103B1000BC008091BC0087FFFCCF9091B900987FDA
:103B200081E0983209F080E0089584E88093BC0039
:103B30008091BC0087FFFCCF8091BB0008951F934C
:103B4000CF93DF931F92CDB7DEB7182F69830E9402
:103B5000641D80ED0E94731D812F0E94841D698168
:103B6000862F0E94841D84E98093BC000F90DF9112
:103B7000CF911F9108951F93CF93DF931F92CDB7DD
:103B8000DEB7182F69830E94641D812F0E94731D68
:103B90006981862F0E94841D0E94641D81E0810F2F
:103BA0000E94731D0E94951D94E99093BC000F9094
:103BB000DF91CF911F91089566E080ED0C94BB1DBD
:103BC00064E080ED0C94BB1D65E080ED0C94BB1DA2
:103BD00062E080ED0E94BB1D8F73089561E080ED6F
:103BE0000C94BB1D60E080ED0C94BB1D982F9F7062
:103BF0001F929F9382958F701F928F9381EC91E01B
:103C00009F938F937F936F930E94AB258DB79EB741
:103C100008960FB6F8949EBF0FBE8DBF0895BF9251
:103C2000CF92DF92EF92FF920F931F93CF93DF9388
:103C3000CDB7DEB72A970FB6F894DEBF0FBECDBF63
:103C4000B82E9A870E94DC1D7E0127E0E20EF11C4F
:103C5000B7010E94F61D0E94E41D8E010C5F1F4FEC
:103C6000B8010E94F61D0E94E01D9E012F5F3F4F8C
:103C70006901B9010E94F61DFF92EF921F930F9305
:103C8000DF92CF9226EC31E03F932F939A859F935A
:103C9000BF920E94AB250FB6F894DEBF0FBECDBF1A
:103CA0002A960FB6F894DEBF0FBECDBFDF91CF913D
:103CB0001F910F91FF90EF90DF90CF90BF900895EC
:103CC000BF92CF92DF92EF92FF920F931F93CF9309
:103CD000DF93CDB7DEB72A970FB6F894DEBF0FBEDD
:103CE000CDBFB82E9A870E94E81D8E01095F1F4F35
:103CF000B8010E94F61D0E94EE1D7E0124E0E20E36
:103D0000F11CB7010E94F61D0E94F21D9E012F5F5B
:103D10003F4F6901B9010E94F61DDF92CF92FF92D9
:103D2000EF921F930F932FEC31E03F932F939A85DF
:103D30009F93BF920E94AB250FB6F894DEBF0FBED3
:103D4000CDBF2A960FB6F894DEBF0FBECDBFDF9170
:103D5000CF911F910F91FF90EF90DF90CF90BF9088
:103D60000895CF92DF92EF92FF920F931F93CF931C
:103D7000DF93CDB7DEB762970FB6F894DEBF0FBE04
:103D8000CDBFD82EC92E8E01065F1F4FC8010E94DD
:103D90000F1ECE0101967C010E94601EFF92EF92E1
:103DA0001F930F9328ED31E03F932F93CF92DF9233
:103DB0000E94AB250FB6F894DEBF0FBECDBF629652
:103DC0000FB6F894DEBF0FBECDBFDF91CF911F912C
:103DD0000F91FF90EF90DF90CF9008951F93CF93B6
:103DE000DF93FC0101900020E9F79F012950310980
:103DF0002817390709F04CC0FC01818120ED280FFC
:103E00009081990F9056892F880F880F980F822FD5
:103E1000890FD48120ED2D0F9381990F9056D92FC2
:103E2000DD0FDD0F9D0FD22FD90FC78120ED2C0F95
:103E30009681990F9056C92FCC0FCC0F9C0FC22F93
:103E4000C90F1AE0612F0E94B524692F20E1829FDB
:103E5000600D112484E00E949F1D8D2F612F0E9410
:103E6000B524692F20E1829F600D112485E00E9416
:103E70009F1D8C2F612F0E94B524692F20E1829F06
:103E8000600D112486E0DF91CF911F910C949F1D4E
:103E9000DF91CF911F9108951F93CF93DF93FC0182
:103EA00001900020E9F79F012950310928173907AF
:103EB00009F04CC0FC01818120ED280F9081990F01
:103EC0009056892F880F880F980F822F890FD481E1
:103ED00020ED2D0F9381990F9056D92FDD0FDD0F17
:103EE0009D0FD22FD90FC78120ED2C0F9681990FEE
:103EF0009056C92FCC0FCC0F9C0FC22FC90F1AE0C0
:103F0000612F0E94B524692F20E1829F600D11244A
:103F100082E00E949F1D8D2F612F0E94B524692F82
:103F200020E1829F600D112481E00E949F1D8C2F53
:103F3000612F0E94B524692F20E1829F600D11241A
:103F400080E0DF91CF911F910C949F1DDF91CF9165
:103F50001F9108950C945E1D60E070E0CB01089500
:103F60008EBD0DB407FEFDCF8EB508958FEF8EBDCB
:103F70000DB407FEFDCF8EB50895FF920F931F93EA
:103F8000CF93DF9300D000D0CDB7DEB7F82E80916D
:103F9000C002811113C08FEE8F0D823040F088EE89
:103FA0008F0D823020F080EE8F0D823038F489E062
:103FB000440F551F661F771F8A95D1F72A988F2DBA
:103FC000806449835A836B837C830E94B01F7C8109
:103FD000872F0E94B01F6B81862F0E94B01F5A81CD
:103FE000852F0E94B01F4981842F0E94B01F88E056
:103FF000F81202C087E801C085E90E94B01F10E0F6
:104000000E94B61F082F8F3F19F41150C9F71FC027
:1040100081110EC08AE3F8121AC00E94B61F86FFF3
:1040200004C081E08093C0020CC01092C00209C09D
:10403000813069F488E0F8120AC00E94B61F0E941D
:10404000B61F0E94B61F0E94B61F0E94B61F0E9494
:10405000B61F2A9A802F0F900F900F900F90DF912C
:10406000CF911F910F91FF9008951F93CF93DF93EE
:104070001092BB0284B18C6284B983E58CBD1DBCF7
:10408000CAE08FEF0E94B01FC150D9F72A98D1E241
:1040900040E050E0BA0180E00E94BD1FD15009F419
:1040A0004CC08130A9F72A9A8FEF0E94B01F8FEF82
:1040B0000E94B01FDFEF4AEA51E060E070E088E064
:1040C0000E94BD1FD15029F481E08093C50211E008
:1040D00003C0813081F712E0DFEF40E050E0BA0129
:1040E00087E30E94BD1F40E050E060E070E489E299
:1040F0000E94BD1FD15019F18111EFCF1092C00263
:104100001230B9F4DFEF40E050E0BA018AE30E94D8
:10411000BD1FD15019F41092C50202C08111F3CF16
:104120008091C002813011F482E001C083E080936D
:10413000C50281E08093BB0203C0C1E001C0C2E0C0
:104140008C2FDF91CF911F9108950F931F93CF93E1
:10415000DF938C0181E10E94BD1F81111CC02A9850
:10416000C0E0D0E00E94B61F8E3F29F02197D1F722
:104170002A9A81E010C0E8011E5F0E94B61F899351
:10418000C017D107D1F70E94B61F0E94B61F0E9428
:10419000B61F2A9A80E0DF91CF911F910F91089569
:1041A0000F931F93CF93DF938C0188E10E94BD1F73
:1041B000811137C02A988EEF0E94B01FE8011E5F60
:1041C00089910E94B01FC017D107D1F78FEF0E94CD
:1041D000B01F8FEF0E94B01F0E94B61F982F9F71D3
:1041E000953011F02A9A1DC0C0E0D0E00E94B61FA1
:1041F000811103C02196D1F706C02A9A8FEF0E9441
:10420000B01F2A9808C02A9A81E00BC0CE010196FF
:104210002196C9F3EC010E94B61F8823B9F32A9AAC
:1042200080E0DF91CF911F910F9108958F929F921F
:10423000BF92CF92DF92EF92FF920F931F93CF9393
:10424000DF931F92CDB7DEB77C01B22E82E13983B6
:104250000E94BD1F398181113EC02A988B2C932E5C
:104260000B2D08198114910461F1C12CD12C0E94ED
:10427000B61F8E3F39F081E0C81AD108C1F72A9ADB
:1042800081E029C010E0102F0027110FC12CD12C84
:104290000E94B61FF601E00FF11FEE0DFF1D808397
:1042A0008FEFC81AD80AC11482E0D80689F70E9495
:1042B000B61F0E94B61F0E94B61F81E0881A91089F
:1042C000CFCF40E050E0BA018CE00E94BD1F2A9A97
:1042D0000E94B61F80E00F90DF91CF911F910F9148
:1042E000FF90EF90DF90CF90BF909F908F900895B8
:1042F000AF92BF92CF92DF92EF92FF920F931F93F4
:10430000CF93DF931F92CDB7DEB7182F790189E1E4
:1043100099830E94BD1F9981811159C02A98A12EAD
:10432000B92EC12CD12CE114F10489F18CEF0E943B
:10433000B01F00E010E0F501E00FF11F80810E9446
:10434000B01F0F5F1F4F011522E01207A1F78FEF7B
:104350000E94B01F8FEF0E94B01F0E94B61F982FBF
:104360009F71953041F02A9A32C0C6010196CD2046
:10437000C09441F16C010E94B61F8823B1F30E94E2
:10438000B61F81E0E81AF1082EEFB21ACCCF8DEFFC
:104390000E94B01F00E010E00E94B61F811104C00F
:1043A00001501109C9F70EC02A9A8FEF0E94B01F61
:1043B0002A9800E010E00E94B61F811106C001504B
:1043C0001109C9F72A9A81E002C02A9A80E00F9069
:1043D000DF91CF911F910F91FF90EF90DF90CF90E1
:1043E000BF90AF900895F89490914904292F30E040
:1043F00040914804241B31092038310589F0E92F08
:10440000EF77F0E0E853FC4F80839F5F909349047F
:104410008091C10080628093C10080E090E002C082
:104420008FEF9FEF78940895F8949091C603809150
:10443000C703981751F0E92FF0E0EA53FD4F2081B0
:1044400030E09F5F9093C60302C02EEF3FEF789459
:10445000C90108951F920F920FB60F9211248F93E6
:104460009F93AF93BF93EF93FF939091C600A7ECF8
:10447000B3E08C91E82FF0E0EA53FD4F90838F5F1B
:104480008C93FF91EF91BF91AF919F918F910F907E
:104490000FBE0F901F9018951F920F920FB60F929C
:1044A00011248F939F93EF93FF93809148049091F1
:1044B0004904891306C08091C1008F7D8093C1009B
:1044C0000BC0E82FEF77F0E0E853FC4F90818F5F4F
:1044D000809348049093C600FF91EF919F918F9134
:1044E0000F900FBE0F901F901895EAE4F4E081E062
:1044F00091E091838083938382831092C50088E04A
:104500008093C40088E98093C10086E08093C20054
:10451000789408951092C6031092C7030895CF921D
:10452000DF92EF92FF921F93CF93DF93CDB7DEB769
:10453000C058D1090FB6F894DEBF0FBECDBFEFE172
:10454000FEE43197F1F700C000009F938F938EED4A
:1045500091E09F938F930E944F250F900F900F90A3
:104560000F9011E2CE0101967C0183EEC82E81E00E
:10457000D82EFF92EF92DF92CF920E949525EFE125
:10458000FEE43197F1F700C0000011500F900F903A
:104590000F900F9011F481E018C042E050E06AEEF5
:1045A00071E0C7010E94FD24892B19F78DEE91E07F
:1045B0009F938F938EED91E09F938F930E944F2551
:1045C0000F900F900F900F9080E0C058DF4F0FB604
:1045D000F894DEBF0FBECDBFDF91CF911F91FF904A
:1045E000EF90DF90CF900895CF92DF92EF92FF92FD
:1045F0001F93CF93DF93CDB7DEB7C058D1090FB665
:10460000F894DEBF0FBECDBF2FEF83EC99E02150B1
:1046100080409040E1F700C0000015E1CE01019616
:104620007C018AEBC82E81E0D82EFF92EF92DF92B8
:10463000CF920E9495258FE19EE40197F1F700C08B
:10464000000011500F900F900F900F9011F411E097
:1046500036C0B70180EF91E00E940B25892B29F32A
:1046600086EF91E00E948F2280E191E00E948F22EC
:10467000882311F012E023C08BEF91E00E948F227B
:104680008111F8CF87E092E00E948F228111F2CF52
:1046900085E192E00E948F228111ECCF8FE292E0BF
:1046A0000E948F228111E6CF8BE392E00E948F223D
:1046B000182F8111DFCF8AE492E00E948F22812F90
:1046C000C058DF4F0FB6F894DEBF0FBECDBFDF91ED
:1046D000CF911F91FF90EF90DF90CF900895CF92F0
:1046E000DF92EF92FF921F93CF93DF93CDB7DEB7A8
:1046F000C556D1400FB6F894DEBF0FBECDBFCE0178
:1047000001967C019F938F938AE692E09F938F930B
:104710000E94952545E050E064E772E0C7010E94E1
:10472000FD240F900F900F900F90892B09F00EC170
:104730001E8110536AE772E0C7010E940B25892B86
:1047400019F17E0191E0E90EF91EC7010E94B11E28
:10475000F70101900020E9F79F012E193F092F5F13
:104760003F4F3F932F931F921F9383E892E09F93B5
:104770008F930E944F25EFE1FEE43197F1F700C0DF
:104780000000FF92EF9227C066E972E0C7010E9425
:104790000B256C01009759F1FC01118A128E0996C4
:1047A0000E94EE1EC60142960E944C1F1F9282E09C
:1047B0008F931F921F9383E892E09F938F930E94A1
:1047C0004F258FE19EE40197F1F700C000008AEECB
:1047D00091E09F938F938EED91E09F938F930E9432
:1047E0004F250FB6F894DEBF0FBECDBFAFC06FE947
:1047F00072E0C7010E940B25892B99F143E068EA1A
:1048000071E0CE018F5F9E4F0E94130D811125C074
:10481000CE018F5F9E4F0E9427161F9282E08F93DA
:104820001F921F9383E892E09F938F930E944F25DE
:104830008FE19EE40197F1F700C000008AEE91E05D
:104840009F938F938EED91E09F938F930E944F25BE
:104850000FB6F894DEBF0FBECDBFCE018F5F9E4F67
:1048600073C06AEA72E0C7010E940B25892B09F424
:104870006DC041E068EA71E0CE018E5B9E4F0E9400
:10488000130D81115EC0C15BDE4F8881CF54D140D2
:104890008F93C25BDE4F8881CE54D1408F93C35B30
:1048A000DE4F8881CD54D1408F93C45BDE4F888129
:1048B000CC54D1408F931F921F9383E892E09F9333
:1048C0008F930E944F258FE19EE40197F1F700C07E
:1048D00000000FB6F894DEBF0FBECDBF9E012C596D
:1048E0003E4F40E450E0BE016F5F7E4FCE018E5BD5
:1048F0009E4F0E94A90E8FE19EE40197F1F700C040
:104900000000CC59DE4FE881F981C456D14081E0E6
:1049100091E08C0F9D1FE80FF91F108260914C04ED
:1049200070914D040E942525CC59DE4F88819981D4
:10493000C456D1408034910589F283EB92E00E9405
:104940006525CE018E5B9E4F0E947312CB59DE4FC0
:104950000FB6F894DEBF0FBECDBFDF91CF911F9190
:10496000FF90EF90DF90CF900895991B79E004C0FD
:10497000991F961708F0961B881F7A95C9F780959E
:104980000895A1E21A2EAA1BBB1BFD010DC0AA1F90
:10499000BB1FEE1FFF1FA217B307E407F50720F0A8
:1049A000A21BB30BE40BF50B661F771F881F991F23
:1049B0001A9469F760957095809590959B01AC016C
:1049C000BD01CF0108950E94EE24A59F900DB49FD4
:1049D000900DA49F800D911D11240895A29FB001F8
:1049E000B39FC001A39F700D811D1124911DB29F23
:1049F000700D811D1124911D0895FB01DC014150B2
:104A0000504030F08D910190801919F40020B9F7D1
:104A1000881B990B0895FB0151915523A9F0BF0103
:104A2000DC014D9145174111E1F759F4CD01019099
:104A3000002049F04D9140154111C9F3FB0141118E
:104A4000EFCF81E090E001970895EF92FF920F93EE
:104A50001F93CF93DF93DB0113962C9121FF18C096
:104A60008B017C01D0E0C0E0F70181917F018823B8
:104A700061F0D8011896ED91FC911997B80109954C
:104A8000892B91F3DFEFCFEFEFCF8D2F9C2F02C05B
:104A90008FEF9FEFCDB7DEB7E6E00C94A92BA0E037
:104AA000B0E0E5E5F5E20C94912BAE014B5F5F4F72
:104AB000FA0161917191AF0180914C0490914D0484
:104AC0000E94E725E2E00C94AD2B0F931F93CF9348
:104AD000DF93E0914C04F0914D04238121FF1BC032
:104AE0008C01D0E0C0E0F80181918F0160914C040D
:104AF00070914D04DB011896ED91FC911997882374
:104B000031F00995892B79F3DFEFCFEFECCF8AE015
:104B10000995892B19F08FEF9FEF02C08D2F9C2FE5
:104B2000DF91CF911F910F910895A0E0B0E0EBE9E4
:104B3000F5E20C94912BAE014B5F5F4FFA0161914E
:104B40007191AF0180914A0490914B040E943929E0
:104B5000E2E00C94AD2BAEE0B0E0E1EBF5E20C94BA
:104B60008F2B0D891E8986E08C831A8309838FEF32
:104B70009FE79E838D83AE01475E5F4F6F89788D7F
:104B8000CE0101960E94E7252F813885F801E20FBA
:104B9000F31F10822E96E4E00C94AB2BAEE0B0E055
:104BA000E4EDF5E20C94912B85E08C838B899C8954
:104BB0009A838983AE01495E5F4F6D897E89CE01FC
:104BC00001960E9439292E96E2E00C94AD2BACE0C0
:104BD000B0E0EDEEF5E20C94812B7C016B018A01D3
:104BE000FC0117821682838181FFBDC1CE0101962F
:104BF0004C01F7019381F60193FD859193FF81911B
:104C00006F01882309F4ABC1853239F493FD859196
:104C100093FF81916F01853229F4B70190E00E94E2
:104C2000CF2AE7CF512C312C20E02032A0F48B3258
:104C300069F030F4803259F0833269F420612CC07D
:104C40008D3239F0803339F4216026C0226024602F
:104C500023C0286021C027FD27C030ED380F3A302F
:104C600078F426FF06C0FAE05F9E300D1124532E23
:104C700013C08AE0389E300D1124332E20620CC000
:104C80008E3221F426FD6BC1206406C08C3611F4EF
:104C9000206802C0883641F4F60193FD859193FFA8
:104CA00081916F018111C1CF982F9F7D95549330D1
:104CB00028F40C5F1F4FFFE3F9830DC0833631F0FA
:104CC000833771F0833509F05BC022C0F801808121
:104CD00089830E5F1F4F44244394512C540115C007
:104CE0003801F2E06F0E711CF801A080B18026FF40
:104CF00003C0652D70E002C06FEF7FEFC5012C8708
:104D00000E94862A2C0183012C852F77222E17C022
:104D10003801F2E06F0E711CF801A080B18026FF0F
:104D200003C0652D70E002C06FEF7FEFC5012C87D7
:104D30000E947B2A2C012C852068222E830123FCD3
:104D40001BC0832D90E048165906B0F4B70180E2ED
:104D500090E00E94CF2A3A94F4CFF50127FC859188
:104D600027FE81915F01B70190E00E94CF2A3110A8
:104D70003A94F1E04F1A51084114510471F7E5C01B
:104D8000843611F0893639F5F80127FF07C06081B4
:104D90007181828193810C5F1F4F08C06081718196
:104DA000072E000C880B990B0E5F1F4F2F76722E6B
:104DB00097FF09C090958095709561957F4F8F4FB3
:104DC0009F4F2068722E2AE030E0A4010E94202B21
:104DD000A82EA81844C0853729F42F7EB22E2AE0C9
:104DE00030E025C0F22FF97FBF2E8F36C1F018F4C6
:104DF000883579F0B4C0803719F0883721F0AFC01A
:104E00002F2F2061B22EB4FE0DC08B2D8460B82EE2
:104E100009C024FF0AC09F2F9660B92E06C028E063
:104E200030E005C020E130E002C020E132E0F801CE
:104E3000B7FE07C060817181828193810C5F1F4F33
:104E400006C06081718180E090E00E5F1F4FA40179
:104E50000E94202BA82EA818FB2DFF777F2E76FE10
:104E60000BC0372D3E7FA51450F474FE0AC072FCAF
:104E700008C0372D3E7E05C0BA2C372D03C0BA2C92
:104E800001C0B52C34FF0DC0FE01EA0DF11D80817B
:104E9000803311F4397E09C032FF06C0B394B39455
:104EA00004C0832F867809F0B39433FD13C030FF1C
:104EB00006C05A2CB31418F4530C5B18B32CB3145B
:104EC00068F4B70180E290E03C870E94CF2AB39457
:104ED0003C85F5CFB31410F43B1801C0312C34FFDE
:104EE00012C0B70180E390E03C870E94CF2A3C8546
:104EF00032FF17C031FD03C088E790E002C088E5AB
:104F000090E0B7010CC0832F867859F031FF02C0C2
:104F10008BE201C080E237FD8DE2B70190E00E9494
:104F2000CF2AA51438F4B70180E390E00E94CF2A7D
:104F30005A94F7CFAA94F401EA0DF11D8081B701CC
:104F400090E00E94CF2AA110F5CF332009F451CE72
:104F5000B70180E290E00E94CF2A3A94F6CFF701A1
:104F60008681978102C08FEF9FEF2C96E2E10C942F
:104F70009D2B20FD09C0FC0123FD05C022FF02C0BE
:104F80007383628351834083089544FD10C046FDBE
:104F900010C0DB01FC01AA0FBB1FEE1FFF1F109406
:104FA000D1F76A0F7B1F8E1F9F1F31E003C033E0D4
:104FB00001C034E0660F771F881F991F3150D1F769
:104FC000620F711D811D911D08950F931F93CF9343
:104FD000DF938C01C8010E94912AEC0197FD08C063
:104FE0000E94672A892BB1F7B801CE010E94072BD6
:104FF000CE01DF91CF911F910F910895A1E0B0E014
:10500000E4E0F8E20C94872B8C01C62E7A01298308
:105010000E94912AAC01552729814B32510521F07C
:105020004D32510569F42068CA94C11002C080E075
:1050300076C0C80129830E94912A298197FDF7CF64
:10504000322F3D7FD32E322F307349F5803339F51F
:10505000BB24BA94BC0C09F44EC0C80129830E9439
:10506000912A298197FD47C0382F3F7D383569F453
:105070008D2D8264D82ECA94CA94CC20E1F1C80147
:105080000E94912A97FF0BC036C026FF04C02D2D29
:105090002260D22E03C03D2D3261D32ECB2C812C29
:1050A000912C540120ED280F283080F0D4FE04C04C
:1050B000B8010E94072B1CC02A3040F0D6FEF8CF62
:1050C0002F7D3FEE320F363098F727504D2DC5011A
:1050D000B4010E94C5274B015C018D2D8260D82E42
:1050E000CA94CC2059F0C8010E94912A97FFDACFC8
:1050F000D1FC04C09CCF812C912C5401D7FE08C058
:10510000B094A09490948094811C911CA11CB11C1B
:105110002D2DB501A401C7010E94B92781E0219678
:10512000ECE00C94A32BA1E2B0E0E9E9F8E20C94E6
:10513000852B5C017A01CE0101966C0180E2F601BB
:1051400011928A95E9F7F501838040E050E0912CB7
:10515000712C70E0A1E0B0E0F90183FC859183FE41
:1051600081918F01982F9F01811103C080E090E011
:105170007CC08E3519F44115510549F1E72FF0E057
:10518000E417F5073CF48D3559F18D3219F4772089
:1051900001F103C0711001C0982E892F8695869564
:1051A00086958601080F111D892F87703D0101C06A
:1051B000660C8A95EAF7F801808186298083991523
:1051C00059F0991510F49F5FE8CF9150E6CF71E048
:1051D00004C07724739401C0712C4F5F5F4FBCCF24
:1051E000772019F08E8180628E83711103C099241B
:1051F000939416C0F6019E012F5D3F4F80818095EC
:105200008193E217F307D1F7F2CFE114F10429F00B
:10521000F7018083C70101967C016150912CF9F060
:10522000C50169A30E94912A69A197FD16C0282F84
:10523000269526952695F601E20FF11D208130E096
:10524000AC014770552702C0359527954A95E2F77E
:1052500020FDDBCFB5010E94072B911087CFE11411
:10526000F10411F0F7011082C801A196EEE00C9450
:10527000A12B4F925F927F928F929F92AF92BF929B
:10528000CF92DF92EF92FF920F931F93CF93DF9312
:105290001F92CDB7DEB76C012B015A01FC011782BA
:1052A0001682712CF601F380F201F3FC8591F3FE76
:1052B0008191382F2F01882309F4F3C090E03983BE
:1052C0000E94672A3981892B21F0C6010E94E527B7
:1052D000E9CF353241F4F201F3FC3591F3FE31911F
:1052E0002F01353269F4C60139830E94912A398130
:1052F00097FDD5C03817B1F2B6010E94072BD1C077
:105300003A3239F4F3FC3591F3FE31912F0151E03B
:1053100001C050E0420110E020ED230F2A3090F44C
:105320005260612F70E080E090E040E259830E947B
:10533000C527162FF401F3FC3591F3FE31914F018F
:105340005981EACF052F232F240151FF03C01111EA
:1053500002C0A7C01FEF383619F03C3659F011C013
:10536000F401F3FC2591F3FE21912F01283649F435
:10537000052F08600460F201F3FC2591F3FE2191F2
:105380002F01222309F48DC0622F70E088E690E09F
:1053900029830E94702A2981892B09F482C000FD8B
:1053A00007C0F501E080F180C50102965C0102C0F2
:1053B000E12CF12C2E3651F4F6014681578160E044
:1053C00070E0202FC7010E94B9276CCF233691F4DB
:1053D00001FF11E0C6010E94912A97FD60C0E1140F
:1053E000F10429F0F7018083C70101967C01115077
:1053F00089F751C02B3559F49201A701612FC601DD
:105400000E9493282C01892B09F045C03FC0C6019A
:1054100029830E94E527298197FD41C02F3659F144
:1054200028F4243631F1293649F127C0233769F0B1
:105430002537F9F022C0E114F10429F0F701808248
:10544000C70101967C01115071F0C6010E94912A9A
:105450004C0197FD08C00E94672A892B61F3B601B1
:10546000C4010E94072BE114F104A9F0F701108296
:1054700012C0006203C0006101C00064202FA701B8
:10548000612FC6010E94FE27811105C0F6018381AC
:10549000807329F406C000FD05CF739403CF7720F5
:1054A00019F0872D90E002C08FEF9FEF0F90DF91F2
:1054B000CF911F910F91FF90EF90DF90CF90BF9011
:1054C000AF909F908F907F905F904F900895911133
:1054D0000C947E2B803219F089508550C8F70895BE
:1054E000FC010590061621F00020D9F7C0010895AF
:1054F0003197CF010895FC01059061507040011073
:10550000D8F7809590958E0F9F1F0895FC016150EC
:10551000704001900110D8F7809590958E0F9F1FD5
:105520000895CF93DF93EC012B8120FF33C026FF3A
:105530000AC02F7B2B838E819F8101969F838E8350
:105540008A8190E029C022FF0FC0E881F981808123
:10555000082E000C990B009719F420622B831AC0B7
:105560003196F983E8830EC0EA85FB85099597FF9C
:1055700009C02B81019611F080E201C080E1822BED
:105580008B8308C02E813F812F5F3F4F3F832E8347
:10559000992702C08FEF9FEFDF91CF9108950F936E
:1055A0001F93CF93DF93FB01238121FD03C08FEF76
:1055B0009FEF28C022FF16C0468157812481358184
:1055C0004217530744F4A081B1819D012F5F3F4FE3
:1055D000318320838C93268137812F5F3F4F378320
:1055E000268310C0EB01092F182F0084F185E02DD0
:1055F0000995892BE1F68E819F8101969F838E8389
:10560000812F902FDF91CF911F910F910895FB0172
:10561000238120FF12C026FD10C08F3F3FEF93076C
:1056200061F082832F7D206423832681378121507E
:10563000310937832683992708958FEF9FEF0895C7
:10564000FA01AA27283051F1203181F1E8946F93B3
:105650006E7F6E5F7F4F8F4F9F4FAF4FB1E03ED059
:10566000B4E03CD0670F781F891F9A1FA11D680FF7
:10567000791F8A1F911DA11D6A0F711D811D911D2A
:10568000A11D20D009F468943F912AE0269F11249F
:105690003019305D3193DEF6CF010895462F477003
:1056A000405D4193B3E00FD0C9F7F6CF462F4F705E
:1056B000405D4A3318F0495D31FD4052419302D0BC
:1056C000A9F7EACFB4E0A695979587957795679562
:1056D000BA95C9F700976105710508959B01AC0162
:1056E0000A2E06945795479537952795BA95C9F789
:1056F000620F731F841F951FA01D08959927882787
:1057000008952F923F924F925F926F927F928F9265
:105710009F92AF92BF92CF92DF92EF92FF920F9340
:105720001F93CF93DF93CDB7DEB7CA1BDB0B0FB64A
:10573000F894DEBF0FBECDBF09942A883988488807
:105740005F846E847D848C849B84AA84B984C8849D
:10575000DF80EE80FD800C811B81AA81B981CE0F94
:10576000D11D0FB6F894DEBF0FBECDBFED01089579
:04577000F894FFCFDB
:10577400030000000300000000F32114220000468F
:10578400415400464154333200222A2B2C3A3B3CEC
:105794003D3E3F5B5D7C7F0080818283848586877C
:1057A40088898A8B8C8D8E8F9091929394959697FD
:1057B40098999A9B9C9D9E9F8081828384858687ED
:1057C40088898A8B8C8D8E8FB0B1B2B3B4B5B6B7DD
:1057D400B8B9BABBBCBDBEBFC0C1C2C3C4C5C6C7CD
:1057E400C8C9CACBCCCDCECFD0D1D2D3D4D5D6D7BD
:1057F400D8D9DADBDCDDDEDF90919293949596972D
:1058040098999A9B9C9D9E9FF0F0F2F2F4F4F6F620
:10581400F8F9FAFBFCFDFEFF706173732E6461748A
:105824000025732025752025750025730A00252A77
:1058340073257525750025732E25732E2573002574
:10584400733A25733A257300257320257300257355
:105854000D0A0025313230730A004F4B002D2D0004
:10586400726561647900415445300041542B4357BB
:105874004D4F44453D310041542B43574448435018
:105884003D312C300041542B4349505354413D2267
:105894003139322E3136382E312E32333022004116
:1058A400542B4349504D55583D310041542B4349E5
:1058B400505345525645523D310041542B43574AAB
:1058C40041503D224953434F4D50414E59222C22C1
:1058D40042466D6F46543546220020253132305BF6
:1058E4005E0A5D002B4950442C006765745F74693F
:1058F4006D650041542B43495053454E443D257535
:105904002C25750D0A007365745F74696D650063F9
:105914006C6561725F64617461006765745F646182
:065924007461000D00009B
:00000001FF
